:020000040800F2
:1000000000500020413E0008C13A0008C33A0008F1
:10001000C53A0008C73A0008C93A000800000000C5
:10002000000000000000000000000000CB3A0008C3
:10003000CD3A000800000000CF3A0008D13A00088D
:10004000893E0008893E0008893E0008893E000874
:10005000893E0008893E0008893E0008893E000864
:10006000893E0008893E0008893E0008D93A000808
:10007000893E0008893E0008893E0008893E000844
:10008000893E0008893E0008E93A0008893E0008D8
:10009000893E0008893E0008893E0008893E000824
:1000A000893E0008893E0008893E0008893E000814
:1000B000F93A0008893E0008893E0008893E000898
:1000C000893E0008893E0008893E0008893E0008F4
:1000D000893E0008893E0008893E0008893E0008E4
:1000E000893E0008893E0008893E000800000000A3
:1000F0000000000000000000000000000000000000
:0C01000000000000000000005FF808F1A3
:1001100010B5054C237833B9044B13B10448AFF341
:1001200000800123237010BDC009002000000000E2
:10013000F890000808B5034B1BB103490348AFF31F
:10014000008008BD00000000C4090020F8900008ED
:100150004FF0FF0C1CEAD0521EBF1CEAD15392EAAA
:100160000C0F93EA0C0F6FD01A4480EA010C400286
:1001700018BF5FEA41211ED04FF0006343EA5010E0
:1001800043EA5111A0FB01310CF00040B1F5000F22
:100190003EBF490041EAD3715B0040EA010062F1D1
:1001A0007F02FD2A1DD8B3F1004F40EBC25008BFBB
:1001B00020F00100704790F0000F0CF0004C08BFD9
:1001C00049024CEA502040EA51207F3AC2BFD2F1A6
:1001D000FF0340EAC250704740F400004FF00003B4
:1001E000013A5DDC12F1190FDCBF00F000407047EE
:1001F000C2F10002410021FA02F1C2F1200200FA2C
:1002000002FC5FEA310040F1000053EA4C0308BFF2
:1002100020EADC70704792F0000F00F0004C02BF43
:10022000400010F4000F013AF9D040EA0C0093F0BE
:10023000000F01F0004C02BF490011F4000F013B18
:10024000F9D041EA0C018FE70CEAD15392EA0C0F86
:1002500018BF93EA0C0F0AD030F0004C18BF31F0F1
:10026000004CD8D180EA010000F00040704790F0C7
:10027000000F17BF90F0004F084691F0000F91F06B
:10028000004F14D092EA0C0F01D142020FD193EA31
:100290000C0F03D14B0218BF084608D180EA0100B9
:1002A00000F0004040F0FE4040F40000704740F095
:1002B000FE4040F44000704781F0004102E000BF82
:1002C00083F0004330B54FEA41044FEA430594EA16
:1002D000050F08BF90EA020F1FBF54EA000C55EA51
:1002E000020C7FEA645C7FEA655C00F0E2804FEA22
:1002F0005454D4EB5555B8BF6D420CDD2C4480EA04
:10030000020281EA030382EA000083EA010180EA33
:10031000020281EA0303362D88BF30BD11F0004F81
:100320004FEA01314FF4801C4CEA113102D04042B7
:1003300061EB410113F0004F4FEA03334CEA1333F2
:1003400002D0524263EB430394EA050F00F0A7800A
:10035000A4F10104D5F1200E0DDB02FA0EFC22FA05
:1003600005F2801841F1000103FA0EF2801843FAF9
:1003700005F359410EE0A5F120050EF1200E012AEA
:1003800003FA0EFC28BF4CF0020C43FA05F3C01828
:1003900051EBE37101F0004507D54FF0000EDCF1A1
:1003A000000C7EEB00006EEB0101B1F5801F1BD34A
:1003B000B1F5001F0CD349085FEA30004FEA3C0C4E
:1003C00004F101044FEA445212F5800F80F09A8044
:1003D000BCF1004F08BF5FEA500C50F1000041EB48
:1003E000045141EA050130BD5FEA4C0C404141EB4C
:1003F0000101013C28BFB1F5801FE9D291F0000F47
:1004000004BF01460020B1FA81F308BF2033A3F1F5
:100410000B03B3F120020CDA0C3208DD02F1140CEC
:10042000C2F10C0201FA0CF021FA02F10CE002F127
:100430001402D8BFC2F1200C01FA02F120FA0CFC20
:10044000DCBF41EA0C019040E41AA2BF01EB045169
:10045000294330BD6FEA04041F3C1CDA0C340EDC67
:1004600004F11404C4F1200220FA04F001FA02F3AA
:1004700040EA030021FA04F345EA030130BDC4F168
:100480000C04C4F1200220FA02F001FA04F340EA5D
:100490000300294630BD21FA04F0294630BD94F00E
:1004A000000F83F4801306BF81F480110134013DF5
:1004B0004EE77FEA645C18BF7FEA655C29D094EA66
:1004C000050F08BF90EA020F05D054EA000C04BFE4
:1004D0001946104630BD91EA030F1EBF00210020CF
:1004E00030BD5FEA545C05D14000494128BF41F06E
:1004F000004130BD14F580043CBF01F5801130BDD2
:1005000001F0004545F0FE4141F470014FF000005C
:1005100030BD7FEA645C1ABF194610467FEA655C0D
:100520001CBF0B46024650EA013406BF52EA0335AF
:1005300091EA030F41F4002130BD00BF90F0000F9D
:1005400004BF0021704730B54FF4806404F13204D9
:100550004FF000054FF0000150E700BF90F0000F92
:1005600004BF0021704730B54FF4806404F13204B9
:1005700010F0004548BF40424FF000013EE700BF89
:1005800042004FEAE2014FEA31014FEA02701FBF19
:1005900012F07F4393F07F4F81F06051704732F04B
:1005A0007F4208BF704793F07F4F04BF41F40021A2
:1005B000704730B54FF4607401F0004521F0004100
:1005C0001CE700BF50EA010208BF704730B54FF08A
:1005D00000050AE050EA010208BF704730B511F08B
:1005E000004502D5404261EB41014FF4806404F1C3
:1005F00032045FEA915C3FF4D8AE4FF003025FEA49
:10060000DC0C18BF03325FEADC0C18BF033202EBCC
:10061000DC02C2F1200300FA03FC20FA02F001FA26
:1006200003FE40EA0E0021FA02F11444BDE600BFC9
:100630004FF0FF3C06E000BF4FF0010C02E000BFAE
:100640004FF0010C4DF804CD4FEA410C7FEA6C5C91
:100650004FEA430C18BF7FEA6C5C1BD001B050EA34
:10066000410C0CBF52EA430C91EA030F02BF90EA1F
:10067000020F0020704710F1000F91EA030F58BFDE
:10068000994208BF90422CBFD8176FEAE37040F040
:10069000010070474FEA410C7FEA6C5C02D150EADE
:1006A000013C07D14FEA430C7FEA6C5CD6D152EA99
:1006B000033CD3D05DF8040B704700BF844610465E
:1006C00062468C461946634600E000BF01B5FFF75D
:1006D000B7FF002848BF10F1000F01BD4DF808ED2D
:1006E000FFF7F4FF0CBF012000205DF808FB00BFFE
:1006F0004DF808EDFFF7EAFF34BF012000205DF858
:1007000008FB00BF4DF808EDFFF7E0FF94BF0120A4
:1007100000205DF808FB00BF4DF808EDFFF7CEFFA5
:1007200094BF012000205DF808FB00BF4DF808EDE4
:10073000FFF7C4FF34BF012000205DF808FB00BFB5
:100740004FEA4102B2F1E04324BFB3F5001CDCF1F3
:10075000FE5C0DD901F0004C4FEAC0024CEA50702B
:10076000B2F1004F40EB830008BF20F0010070475A
:1007700011F0804F21D113F13872BCBF01F000405D
:10078000704741F480114FEA5252C2F11802C2F18F
:10079000200C10FA0CF320FA02F018BF40F0010010
:1007A0004FEAC1234FEAD32303FA0CFC40EA0C00C2
:1007B00023FA02F34FEA4303CCE77FEA625307D1FF
:1007C00050EA01331EBF4FF0FE4040F44000704736
:1007D00001F0004040F0FE4040F40000704700BFD0
:1007E00080F0004002E000BF81F0004142001FBFE6
:1007F0005FEA410392EA030F7FEA226C7FEA236CEF
:100800006AD04FEA1262D2EB1363C1BFD2184140E3
:1008100048404140B8BF5B42192B88BF704710F079
:10082000004F40F4000020F07F4018BF404211F01C
:10083000004F41F4000121F07F4118BF494292EA84
:10084000030F3FD0A2F1010241FA03FC10EB0C00B0
:10085000C3F1200301FA03F100F0004302D549423D
:1008600060EB4000B0F5000F13D3B0F1807F06D3EA
:1008700040084FEA310102F10102FE2A51D2B1F1E2
:10088000004F40EBC25008BF20F0010040EA0300D7
:100890007047490040EB0000013A28BFB0F5000F57
:1008A000EDD2B0FA80FCACF1080CB2EB0C0200FA0D
:1008B0000CF0AABF00EBC25052421843BCBFD0405C
:1008C0001843704792F0000F81F4000106BF80F4D6
:1008D00000000132013BB5E74FEA41037FEA226C99
:1008E00018BF7FEA236C21D092EA030F04D092F064
:1008F000000F08BF0846704790EA010F1CBF002098
:10090000704712F07F4F04D1400028BF40F00040F4
:10091000704712F100723CBF00F50000704700F014
:10092000004343F0FE4040F4000070477FEA22623B
:1009300016BF08467FEA23630146420206BF5FEA0C
:10094000412390EA010F40F4800070474FF000030C
:1009500004E000BF10F0004348BF40425FEA000CD3
:1009600008BF704743F0964301464FF000001CE07B
:1009700050EA010208BF70474FF000030AE000BFD1
:1009800050EA010208BF704711F0004302D540420F
:1009900061EB41015FEA010C02BF84460146002081
:1009A00043F0B64308BFA3F18053A3F50003BCFA9C
:1009B0008CF2083AA3EBC25310DB01FA02FC634449
:1009C00000FA02FCC2F12002BCF1004F20FA02F250
:1009D00043EB020008BF20F00100704702F1200243
:1009E00001FA02FCC2F1200250EA4C0021FA02F2A4
:1009F00043EB020008BF20EADC707047844641EAFE
:100A0000000313F0030349D1403A23D30B6803607A
:100A10004B6843608B688360CB68C3600B6903617C
:100A20004B6943618B698361CB69C3610B6A036264
:100A30004B6A43628B6A8362CB6AC3620B6B03634C
:100A40004B6B43638B6B8363CB6BC3634030403131
:100A5000403ADBD230320BD30B6803604B68436003
:100A60008B688360CB68C36010301031103AF3D2CA
:100A70000C3205D351F8043B40F8043B043AF9D258
:100A8000043208D0D2071CBF11F8013B00F8013B2B
:100A900001D30B8803806046704700BF082A13D338
:100AA0008B07B1D010F00303AED0C3F10403D21A08
:100AB000DB071CBF11F8013B00F8013BA4D331F860
:100AC000023B20F8023B9FE7043AD9D3013A11F8E0
:100AD000013B00F8013BF9D20B7803704B7843706F
:100AE0008B7883706046704770B54FF0FF0C4CF404
:100AF000E06C1CEA11541DBF1CEA135594EA0C0F5C
:100B000095EA0C0F00F0DEF82C4481EA030621EA96
:100B10004C5123EA4C5350EA013518BF52EA0335D1
:100B200041F4801143F4801338D0A0FB02CE4FF083
:100B30000005E1FB02E506F00042E0FB03E54FF0B3
:100B40000006E1FB03569CF0000F18BF4EF0010EAB
:100B5000A4F1FF04B6F5007F64F5407404D25FEAA7
:100B60004E0E6D4146EB060642EAC62141EA55515A
:100B70004FEAC52040EA5E504FEACE2EB4F1FD0C9C
:100B800088BFBCF5E06F1ED8BEF1004F08BF5FEA1A
:100B9000500E50F1000041EB045170BD06F00046CC
:100BA00046EA010140EA020081EA0301B4EB5C0479
:100BB000C2BFD4EB0C0541EA045170BD41F4801171
:100BC0004FF0000E013C00F3AB8014F1360FDEBF96
:100BD000002001F0004170BDC4F10004203C35DA72
:100BE0000C341BDC04F11404C4F1200500FA05F3F5
:100BF00020FA04F001FA05F240EA020001F0004296
:100C000021F0004110EBD37021FA04F642EB06010B
:100C10005EEA430E08BF20EAD37070BDC4F10C0435
:100C2000C4F1200500FA04F320FA05F001FA04F2F9
:100C300040EA020001F0004110EBD37041F10001E5
:100C40005EEA430E08BF20EAD37070BDC4F12005F0
:100C500000FA05F24EEA020E20FA04F301FA05F258
:100C600043EA020321FA04F001F0004121FA04F200
:100C700020EA020000EBD3705EEA430E08BF20EAD0
:100C8000D37070BD94F0000F0FD101F0004640000A
:100C900041EB010111F4801F08BF013CF7D041EA8C
:100CA000060195F0000F18BF704703F00046520090
:100CB00043EB030313F4801F08BF013DF7D043EA61
:100CC0000603704794EA0C0F0CEA135518BF95EA17
:100CD0000C0F0CD050EA410618BF52EA4306D1D19E
:100CE00081EA030101F000414FF0000070BD50EABD
:100CF000410606BF1046194652EA430619D094EA47
:100D00000C0F02D150EA013613D195EA0C0F05D130
:100D100052EA03361CBF104619460AD181EA030184
:100D200001F0004141F0FE4141F470014FF000003C
:100D300070BD41F0FE4141F4780170BD70B54FF0D7
:100D4000FF0C4CF4E06C1CEA11541DBF1CEA135557
:100D500094EA0C0F95EA0C0F00F0A7F8A4EB050439
:100D600081EA030E52EA03354FEA013100F0888030
:100D70004FEA03334FF0805545EA131343EA1263F9
:100D80004FEA022245EA111545EA10654FEA0026AE
:100D90000EF000419D4208BF964244F1FD0404F567
:100DA000407402D25B084FEA3202B61A65EB0305C3
:100DB0005B084FEA32024FF480104FF4002CB6EB80
:100DC000020E75EB030E22BFB61A754640EA0C0000
:100DD0005B084FEA3202B6EB020E75EB030E22BF40
:100DE000B61A754640EA5C005B084FEA3202B6EB81
:100DF000020E75EB030E22BFB61A754640EA9C0040
:100E00005B084FEA3202B6EB020E75EB030E22BF0F
:100E1000B61A754640EADC0055EA060E18D04FEACD
:100E2000051545EA16754FEA06164FEAC30343EA6D
:100E300052734FEAC2025FEA1C1CC0D111F4801F3A
:100E40000BD141EA00014FF000004FF0004CB6E733
:100E500011F4801F04BF01430020B4F1FD0C88BFD2
:100E6000BCF5E06F3FF6AFAEB5EB030C04BFB6EBDD
:100E7000020C5FEA500C50F1000041EB045170BDD0
:100E80000EF0004E4EEA113114EB5C04C2BFD4EBFD
:100E90000C0541EA045170BD41F480114FF0000E81
:100EA000013C90E645EA060E8DE60CEA135594EAFD
:100EB0000C0F08BF95EA0C0F3FF43BAF94EA0C0F00
:100EC0000AD150EA01347FF434AF95EA0C0F7FF475
:100ED00025AF104619462CE795EA0C0F06D152EAC9
:100EE00003353FF4FDAE1046194622E750EA4106AD
:100EF00018BF52EA43067FF4C5AE50EA41047FF4BE
:100F00000DAF52EA43057FF4EBAE12E74FEA410C16
:100F10007FEA6C5C02D150EA013C0AD14FEA430CF3
:100F20007FEA6C5C02D152EA033C02D14FF0000030
:100F300070474FF0010070474FEA410212F500126E
:100F400015D211D56FF47873B3EB625212D94FEA10
:100F5000C12343F0004343EA505311F0004F23FAFA
:100F600002F018BF404270474FF00000704750EA4F
:100F7000013005D111F0004008BF6FF0004070470C
:100F80004FF00000704700BF53B94AB9002908BFAD
:100F900000281CBF4FF0FF314FF0FF3000F06EB95A
:100FA000ADF1080C6DE904CE00F006F8DDF804E0C0
:100FB000DDE9022304B070472DE9F047089E0D4695
:100FC00004468E46002B40F083808A42174647D95C
:100FD000B2FA82F34BB1C3F1200105FA03FE20FA05
:100FE00001F19F4041EA0E0E9C404FEA1748BEFBBC
:100FF000F8FC1FFA87F908FB1CE20CFB09F0210C36
:1010000041EA024290420AD9BA180CF1FF3180F04D
:101010001881904240F21581ACF1020C3A44121A48
:10102000B2FBF8F008FB102200FB09F1A4B244EA7D
:101030000244A14209D93C1900F1FF3280F003813A
:10104000A14240F2008102383C44641A002140EA87
:101050000C401EB10022DC40C6E90042BDE8F0872A
:1010600002B9FFDEB2FA82F3002B4FD18D1A0121B3
:101070004FEA124E1FFA82F8B5FBFEFC0EFB1C5520
:1010800008FB0CF0220C42EA0545A84207D97D195D
:101090000CF1FF3202D2A84200F2E98094462D1AE8
:1010A000B5FBFEF00EFB105508FB00F8A4B244EAB5
:1010B0000544A04507D93C1900F1FF3202D2A045F2
:1010C00000F2D9801046A4EB080440EA0C40C0E7C7
:1010D0008B4208D9002E00F0B1800021C6E900053E
:1010E0000846BDE8F087B3FA83F100294BD1AB4243
:1010F00002D3824200F2B980841A65EB0303012017
:101100009E46002EAAD0C6E9004EA7E79F40C3F135
:101110002002D1404FEA174EB1FBFEF01FFA87F8CC
:101120000EFB101124FA02F29D4000FB08FC2A433A
:10113000150C45EA0145AC4504FA03F409D97D19BB
:1011400000F1FF3180F08F80AC4540F28C80023896
:101150003D44A5EB0C05B5FBFEF10EFB115C01FB5C
:1011600008F995B245EA0C45A94507D97D1901F161
:10117000FF3274D2A94572D902393D44A5EB090565
:1011800041EA004178E7C1F120078B4022FA07FCD1
:101190004CEA030C25FA07F44FEA1C4EB4FBFEF9A7
:1011A0001FFA8CF80EFB194420FA07F309FB08FA22
:1011B0008D401D432B0C43EA0444A24502FA01F280
:1011C00000FA01F309D91CEB040409F1FF3048D2FD
:1011D000A24546D9A9F102096444A4EB0A04B4FB70
:1011E000FEF00EFB104400FB08FAADB245EA0444E1
:1011F000A24508D91CEB040400F1FF352DD2A2450D
:101200002BD90238644440EA0940A0FB0289A4EBD0
:101210000A044C45C6464D4619D316D05EB1B3EB11
:101220000E0264EB050404FA07F722FA01F31F43E8
:10123000CC40C6E900740021BDE8F0873146304655
:101240000CE78C46EBE61046FFE64345E6D2B8EBEA
:10125000020E69EB0C050138E0E72846D3E711469A
:101260008CE78146B9E7084673E7084649E7ACF1E1
:10127000020C3D4413E702383C4424E7704700BFAA
:1012800010B504460E4B18784FF47A73B3FBF0F3A5
:101290000C4A1068B0FBF3F000F016FC68B90F2C94
:1012A00001D901200AE0002221464FF0FF3000F072
:1012B000C9FB054B1C60002000E0012010BD00BFF1
:1012C00000000020100000200400002008B5074A9C
:1012D000136843F010031360032000F0A1FB0F20FC
:1012E000FFF7CEFF02F0CAFB002008BD002002403D
:1012F000034A1168034B1B780B441360704700BF0F
:10130000DC09002000000020014B1868704700BF76
:10131000DC09002038B50446FFF7F6FF0546B4F1B6
:10132000FF3F02D0044B1B781C44FFF7EDFF401B2E
:10133000A042FAD338BD00BF000000200368D86C7B
:10134000704708B5436A9A6A12F0500F1ED19A6A24
:1013500042F400729A621A68926802F46022B2F54E
:10136000602F03D0184602F00BFA08BD1A7B002A42
:10137000F8D19A6A22F480729A629A6A12F4805FB3
:10138000F0D19A6A42F001029A62EBE71B6A1B6B8A
:101390009847EAE7704708B5406AFFF7FBFF08BDCA
:1013A000704710B5044603685A6812F0200F18D031
:1013B0001A6812F0020F14D0826A12F0100F03D1D3
:1013C000826A42F4007282629A6802F46022B2F584
:1013D000602F38D0204602F0D3F923686FF0120254
:1013E0001A6023685A6812F0800F22D01A6812F02F
:1013F000040F1ED0A26A12F0100F03D1A26A42F4A9
:101400000052A2629A6802F4E042B2F5E04F31D095
:101410005A6812F4806F05D19A6802F46022B2F51E
:10142000602F24D0204600F0F9FA23686FF00C02F8
:101430001A6023685A6812F0400F03D01B6813F03B
:10144000010F28D110BD227B002AC3D15A6822F097
:1014500020025A60A36A23F48073A362A36A13F480
:10146000805FB7D1A36A43F00103A362B2E7227B96
:10147000002AD7D15A6822F080025A60A36A23F466
:101480008053A362A36A13F4807FCBD1A36A43F095
:101490000103A362C6E7A36A43F48033A362204634
:1014A000FFF77EFF23686FF001021A60CAE77047FA
:1014B00008B5406A836A43F040038362C36A43F01D
:1014C0000403C362FFF7F3FF08BD000030B482B02D
:1014D0000022019290F82420012A00F08B8003461C
:1014E000012280F824204A68062A29D80568686BFA
:1014F00002EB8202053A1F24944020EA04000C68A3
:1015000004FA02F202436A630A68092A38D91D689C
:10151000E86802EB42021E3A0724944020EA0400E5
:101520008C6804FA02F20243EA600A68103A012A5F
:1015300034D90020002283F8242002B030BC704748
:101540000C2A0ED80568286B02EB8202233A1F246E
:10155000944020EA04000C6804FA02F202432A6371
:10156000D2E70568E86A02EB8202413A1F24944000
:1015700020EA04000C6804FA02F20243EA62C3E7BC
:101580001D68286902EB42020724944020EA040007
:101590008C6804FA02F202432A61C6E71A68164808
:1015A000824205D09A6A42F020029A620120C1E785
:1015B000906810F4000F1BD1906840F40000906018
:1015C0000A68102A01D00020B4E70C4A12680C49BE
:1015D000A1FB0212920C02EB82025200019202E085
:1015E000019A013A0192019A002AF9D10020A1E75B
:1015F00000209FE70220A0E7002401401000002007
:1016000083DE1B4330B583B00023019303689A68DF
:1016100012F0010F32D104469A6842F001029A603A
:10162000184B1B68184AA2FB03239B0C0193019BD8
:101630001BB1019B013B0193F9E7FFF765FE0546EE
:1016400023689B6813F0010F16D1FFF75DFE431B63
:10165000022BF5D923689B6813F0010FF0D1A36A20
:1016600043F01003A362E36A43F00103E362002343
:1016700084F82430012002E0002000E0002003B0C4
:1016800030BD00BF1000002083DE1B43F8B50446C8
:101690000D461646036844498B4259D0434A93424B
:1016A00056D094F82430012B7CD0012384F82430C8
:1016B0002046FFF7A7FF074600286ED1A36A23F450
:1016C000706323F0010343F48073A3622268374BF5
:1016D0009A4244D0A36A23F48013A362536813F49C
:1016E000806F05D0A36A23F4405343F48053A36270
:1016F000A36A13F4805F48D0E36A23F00603E36231
:10170000002384F82430236A294A9A62236A294AEA
:10171000DA62236A284A1A6323686FF002021A60A9
:101720002268936843F480739360216833462A46A5
:101730004C31206A00F02AFA23689A6802F4602289
:10174000B2F5602F24D09A6842F480129A6027E0A4
:10175000154B5B6813F4702FA3D0012720E0A3F58D
:1017600080635B6813F4702FB4D0A36A43F48013D2
:10177000A3620D4B5B6813F4806FB9D0A36A23F4A6
:10178000405343F48053A362B2E70023E362B7E718
:101790009A6842F4A0029A6002E0002384F82430A0
:1017A0003846F8BD0227FBE700240140002801402D
:1017B0004313000897130008B114000838B50368F4
:1017C0009A6812F0010F01D1002038BD04469A68D2
:1017D00022F001029A60FFF797FD054623689B6897
:1017E00013F0010F13D0FFF78FFD431B022BF5D928
:1017F00023689B6813F0010FF0D0A36A43F0100335
:10180000A362E36A43F00103E3620120DDE7002005
:10181000DBE7000000287BD070B50446836A002B0C
:101820004DD02046FFF7CAFFA36A13F0100369D119
:10183000002867D1A26A22F4885222F0020242F004
:101840000202A2626268E1690A43217B42EA410224
:10185000A568B5F5807F02D0012D36D01D46267DC6
:10186000012E35D02668716821F4694129437160E1
:101870002568AE68274931401143A960A168B1F5D8
:10188000807F01D0012902D12369013B1B05256816
:10189000E96A21F470010B43EB62236899681E4BDF
:1018A0000B409A4225D0A36A23F0120343F01003A1
:1018B000A362E36A43F00103E362012027E0C3620D
:1018C00080F8243001F03EFEABE74FF48075C6E7A8
:1018D00031B9A169013945EA413141F40065C1E7F7
:1018E000A16A41F02001A162E16A41F00101E162D7
:1018F000B8E70023E362A36A23F0030343F0010384
:10190000A36204E0A36A43F01003A362012070BD48
:1019100001207047FDF7E1FFFE0E1FFF70B582B09A
:101920000023019390F82430012B72D00446012348
:1019300080F82430FFF742FF054628B1002384F8E1
:101940002430284602B070BDA36A23F4885323F0E4
:10195000020343F00203A3622F4B1E68022000F033
:10196000A9FFB6FBF0F67600019602E0019B013B71
:101970000193019B002BF9D12046FFF743FE22681B
:10198000936843F008039360FFF7BEFC06462368A4
:101990009A6812F0080F14D0FFF7B6FC801B0A28D3
:1019A000F5D923689B6813F0080FF0D0A36A23F0E1
:1019B000120343F01003A362002384F824300125AE
:1019C000BFE79A6842F004029A60FFF79DFC064662
:1019D00023689B6813F0040F14D0FFF795FC801B5D
:1019E0000A28F5D923689B6813F0040FF0D0A36A86
:1019F00023F0120343F01003A362002384F8243081
:101A000001259EE7A36A23F0030343F00103A362C9
:101A100094E7022595E700BF100000207047000002
:101A2000074AD36823F4E0631B041B0C000200F494
:101A3000E060034343F0BF6343F40033D360704777
:101A400000ED00E030B4174BDB68C3F30223C3F1B1
:101A50000704042C28BF04241D1D062D18D9033BA0
:101A60004FF0FF3505FA04F421EA0401994005FA24
:101A700003F322EA0303194300280BDB0901C9B26F
:101A800000F1604000F5614080F8001330BC704701
:101A90000023E5E700F00F000901C9B2024B195419
:101AA000F4E700BF00ED00E014ED00E0002807DBE4
:101AB00000F01F02400901239340024A42F82030FF
:101AC000704700BF00E100E00138B0F1807F0AD22A
:101AD000064B5860064AF02182F8231000209860D7
:101AE00007221A6070470120704700BF10E000E035
:101AF00000ED00E070B4066CC56B0124B4406C606E
:101B0000046863604368102B05D00368996003681C
:101B1000DA6070BC704703689A600368D960F8E7C0
:101B200060B310B402460168154B0B441548A0FB86
:101B300003031B099B001364134BD363022382F836
:101B40002130086820F47F5020F0300053689468FA
:101B50002343D4682343146923435469234394697A
:101B60002343D469234303430B6000209063012384
:101B700082F8213082F8200010BC704701207047A5
:101B8000F8FFFDBFCDCCCCCC0000024038B50446F8
:101B900090F82000012831D0012084F8200094F82A
:101BA0002100012804D0002384F82030022038BD11
:101BB000022084F821000020A0632568286820F016
:101BC000010028602046FFF795FFE36A5BB12268B9
:101BD000136843F00E0313602268136843F0010397
:101BE00013600020E3E72268136823F00403136006
:101BF0002268136843F00A031360EDE70220D6E77A
:101C000038B5C36B1A6804682568016C04238B40DF
:101C1000134235D015F0040F32D0236813F0200F93
:101C200003D1236823F0040323600368434A9342EB
:101C300014D01432934218D01432934217D0143275
:101C4000934217D01432934217D01432934202D0E9
:101C50004FF0806203E04FF4800200E00422384B32
:101C60005A60C36A03B1984738BD4022F7E74FF482
:101C70008062F4E74FF48042F1E74FF48022EEE710
:101C800002238B4013423CD015F0020F39D0236859
:101C900013F0200F06D1236823F00A0323600123E9
:101CA00080F821300368254A934214D014329342BD
:101CB0001CD0143293421BD0143293421BD01432E6
:101CC00093421BD01432934202D04FF0007203E0D3
:101CD0004FF4001200E00222194B5A60002380F8F2
:101CE0002030836A002BBFD09847BDE72022F3E75E
:101CF0004FF40072F0E74FF40052EDE74FF400327A
:101D0000EAE7082303FA01F11142ADD015F0080FFC
:101D1000AAD0236823F00E032360026CC16B012359
:101D200003FA02F24A60836380F82130002380F8CE
:101D30002030036B002B97D0984795E708000240AE
:101D400000000240F0B482B000252C46A3E07F4F93
:101D5000BB4210D007D97E4FBB420CD007F580376D
:101D6000BB4208D013E0A7F58017BB4203D007F5AC
:101D70007027BB4207D18B68002B58D0012B51D064
:101D80004261082503E0A7F58017BB42F3D0FF2E80
:101D90004FD88446FF2E4FD8A200DCF800300F2722
:101DA000974023EA070305FA02F21343CCF8003008
:101DB0004B6813F0805F6DD0664B9A6942F0010268
:101DC0009A619B6903F001030193019BA208971C90
:101DD000614B53F8273004F00307BF004FF00F0C9E
:101DE0000CFA07FC23EA0C0C5C4B98422AD003F552
:101DF0008063984200F08A8003F58063984200F087
:101E0000878003F5806398421AD004231BE0CD68D5
:101E1000BDE7CD680435BAE7CD680835B7E7CD68CA
:101E20000C35B4E702610825B1E70025AFE70425CA
:101E3000ADE700F1040CADE7A4F108029200ACE7B5
:101E4000032300E00023BB4043EA0C030232424F6D
:101E500047F822304B6813F4803F5BD0404A136848
:101E6000334313604B6813F4003F59D03C4A536826
:101E7000334353604B6813F4801F57D0384A93683C
:101E8000334393604B6813F4001F55D0344AD36832
:101E90001E43D66001340B6833FA04F252D001229B
:101EA000A24003EA020632EA0303F3D14B68122B85
:101EB0003FF64DAF122B3FF66AAF01A757F823F05C
:101EC000771D00080F1E0008191E00082B1E0008B1
:101ED0008F1D00088F1D00088F1D00088F1D000832
:101EE0008F1D00088F1D00088F1D00088F1D000822
:101EF0008F1D00088F1D00088F1D00088F1D000812
:101F00008F1D0008131E00081F1E000801239AE7FA
:101F1000022398E7124A136823EA06031360A1E735
:101F20000F4A536823EA06035360A3E70C4A9368F9
:101F300023EA06039360A5E7094AD36823EA060665
:101F4000D660A7E702B0F0BC704700BF00002210C7
:101F50000000311000100240000001400008014064
:101F6000000401400AB10161704709040161704732
:101F7000C36801EA030221EA030141EA0241016167
:101F800070470000002800F0CC80F8B5044690F8B7
:101F90003D30002B77D0242384F83D30226813682D
:101FA00023F0010313602268136843F400431360B5
:101FB0002268136823F40043136000F0D1FB6268C9
:101FC0005A4B9A4264D85A4B98428CBF0023012343
:101FD000002B40F0A880574DA5FB0035AF0C2668BC
:101FE000716821F03F0141EA9541716021680B6AF7
:101FF00023F03F0365684D4A95424FD87A1C13433E
:102000000B622568E96921F44F4121F0FF01636803
:10201000464A93424CD801385B00B0FBF3F00130E4
:1020200040F6FC73184278D0C0F30B030B43EB610E
:1020300021680B6823F0C003E269206A024313435E
:102040000B6021688B6823F4034323F0FF032269AC
:10205000E068024313438B602168CB6823F0FF03E1
:102060006269A06902431343CB602268136843F09E
:102070000103136000202064202384F83D30206396
:1020800084F83E00F8BD80F83C3001F031FB82E777
:10209000294B98428CBF0023012399E74FF4967295
:1020A00002FB07F2254DA5FB025292090132A6E779
:1020B000A268BAB9461E03EB4307B6FBF7F6013632
:1020C000C6F30B06B6FA86F6760946BBC2B9421EBF
:1020D00003EB4303B2FBF3F20132C2F30B0242F40F
:1020E0000043A3E7461E03EB830707EB8707B6FB16
:1020F000F7F60136C6F30B06B6FA86F67609E4E77C
:10210000421E03EB830303EB8303B2FBF3F20132C2
:10211000C2F30B0242F4404388E7042386E701231D
:1021200084E7012070470120ACE700BFA0860100D2
:102130007F841E0083DE1B43FF083D00D34D6210E9
:1021400082B0084B1B68084AA2FB03235B0A00FB12
:1021500003F3019300BF019B5A1E0192002BF9D19A
:1021600002B0704710000020D34D6210002800F02C
:10217000F18170B582B00446036813F0010F2CD0D2
:10218000AA4B5B6803F00C03042B1DD0A74B5B68C4
:1021900003F00C03082B12D06368B3F5803F41D0E5
:1021A000002B55D103F1804303F504331A6822F460
:1021B00080321A601A6822F480221A6037E09B4B42
:1021C0005B6813F4803FE7D0984B1B6813F4003F23
:1021D00003D06368002B00F0BF81236813F0020F67
:1021E00075D0924B5B6813F00C0F5FD08F4B5B6820
:1021F00003F00C03082B54D02369002B00F08980D6
:102200008B4B01221A60FFF77FF80546874B1B684E
:1022100013F0020F74D1FFF777F8401B0228F5D9AD
:1022200003209EE1814A136843F48033136063689E
:1022300043B3FFF769F805467C4B1B6813F4003F76
:10224000CBD1FFF761F8401B6428F5D9032088E162
:10225000B3F5A02F09D0754B1A6822F480321A60AA
:102260001A6822F480221A60E1E703F18043A3F5A3
:102270003C331A6842F480221A601A6842F48032B1
:102280001A60D4E7FFF740F80546684B1B6813F463
:10229000003FA2D0FFF738F8401B6428F5D903208F
:1022A0005FE1624B5B6813F4803FA5D15F4B1B6815
:1022B00013F0020F03D02369012B40F04F815B4ADA
:1022C000136823F0F803616943EAC10313602368CC
:1022D00013F0080F32D0A369002B45D0554B0122D3
:1022E0001A60FFF711F80546504B5B6A13F0020FB6
:1022F00021D1FFF709F8401B0228F5D9032030E16E
:102300004A4A136823F0F803616943EAC103136082
:10231000DDE7474B00221A60FEF7F6FF0546434B08
:102320001B6813F0020FD2D0FEF7EEFF401B02280D
:10233000F5D9032015E10120FFF702FF236813F010
:10234000040F00F09780394BDB6913F0805F1DD1DB
:10235000364BDA6942F08052DA61DB6903F0805370
:102360000193019B012512E0324B00221A60FEF717
:10237000CBFF05462D4B5B6A13F0020FDED0FEF754
:10238000C3FF401B0228F5D90320EAE000252A4BB1
:102390001B6813F4807F11D0E368012B22D0002B3F
:1023A00038D103F1804303F504331A6A22F00102A5
:1023B0001A621A6A22F004021A6218E01E4A1368AE
:1023C00043F480731360FEF79FFF06461A4B1B68A9
:1023D00013F4807FE0D1FEF797FF801B6428F5D9C6
:1023E0000320BEE0114A136A43F001031362E3685D
:1023F00073B3FEF789FF06460C4B1B6A13F0020FFE
:1024000037D1FEF781FF801B41F288339842F3D920
:102410000320A6E0052B11D0044B1A6A22F001021A
:102420001A621A6A22F004021A62E0E700100240FF
:102430000000424280044242007000404D4B1A6A44
:1024400042F004021A621A6A42F001021A62CEE7EE
:10245000FEF75AFF0646474B1B6A13F0020F08D0DF
:10246000FEF752FF801B41F288339842F3D90320D4
:1024700077E0E5B9E369002B72D03E4A526802F07A
:102480000C02082A56D0022B17D03B4B00221A60B0
:10249000FEF73AFF0446374B1B6813F0007F47D026
:1024A000FEF732FF001B0228F5D9032059E0314A1C
:1024B000D36923F08053D361DCE72F4B00221A60ED
:1024C000FEF722FF05462B4B1B6813F0007F06D05A
:1024D000FEF71AFF401B0228F5D9032041E0236ACA
:1024E000B3F5803F1AD023494B6823F47413226A52
:1024F000606A024313434B601F4B01221A60FEF7D0
:1025000003FF04461B4B1B6813F0007F0ED1FEF740
:10251000FBFE001B0228F5D9032022E0154A536870
:1025200023F40033A1680B435360DCE7002018E07C
:10253000002016E0012B16D00E4B5B6803F48031AF
:10254000226A914211D103F47013626A93420ED150
:10255000002006E001207047012002E0012000E099
:10256000002002B070BD0120FBE70120F9E7012047
:10257000F7E700BF001002406000424286B0164BF1
:102580000FCB0DF1180C0CE90F0040F20123ADF850
:102590000430124B5B6803F00C02082A02D010488A
:1025A00006B07047C3F38342624412F8102C13F450
:1025B000803F0CD0094B5B68C3F34043634413F87E
:1025C000143C074800FB02F0B0FBF3F0E8E70548D5
:1025D00000FB02F0E4E700BF109100080010024089
:1025E00000127A0000093D00002800F0A08070B5BC
:1025F0000D460446524B1B6803F007038B420BD277
:102600004F4A136823F007030B431360136803F06A
:1026100007038B4240F08D80236813F0020F17D020
:1026200013F0040F04D0474A536843F4E063536047
:10263000236813F0080F04D0424A536843F46053F0
:102640005360404A536823F0F003A1680B43536082
:10265000236813F0010F31D06368012B20D0022BC7
:1026600025D0384A126812F0020F64D035494A6802
:1026700022F0030213434B60FEF746FE0646314B41
:102680005B6803F00C036268B3EB820F16D0FEF7B1
:102690003BFE801B41F288339842F0D9032045E08D
:1026A000284A126812F4003FE0D101203EE0254A9A
:1026B000126812F0007FD9D1012037E0204B1B684F
:1026C00003F00703AB420AD91D4A136823F007033E
:1026D0002B431360136803F00703AB422DD123682B
:1026E00013F0040F06D0174A536823F4E063E1683F
:1026F0000B435360236813F0080F07D0114A536847
:1027000023F46053216943EAC1035360FFF736FFA6
:102710000C4B5B68C3F303130B4AD35CD8400B4BE1
:1027200018600B4B1868FEF7ABFD002070BD012050
:1027300070470120FAE70120F8E70120F6E700BF23
:1027400000200240001002404891000810000020C4
:1027500004000020014B1868704700BF10000020E3
:1027600008B5FFF7F7FF044B5B68C3F30223034A86
:10277000D35CD84008BD00BF00100240589100084B
:1027800008B5FFF7E7FF044B5B68C3F3C223034AB6
:10279000D35CD84008BD00BF00100240589100082B
:1027A00070B582B00446036813F0010F34D03E4B7D
:1027B000DB6913F0805F47D13B4BDA6942F080520E
:1027C000DA61DB6903F080530193019B0125374BEC
:1027D0001B6813F4807F39D0334B1B6A13F44073AA
:1027E00011D0626802F440729A420CD02E4A136AE9
:1027F00023F440702E4901260E6000260E60106200
:1028000013F0010F36D1284A136A23F4407361682C
:102810000B431362002D3ED1236813F0020F06D044
:10282000214A536823F44043A1680B435360236853
:1028300013F0100F34D01C4A536823F48003E1686E
:102840000B43536000202CE00025C0E7174A1368B3
:1028500043F480731360FEF757FD0646134B1B6865
:1028600013F4807FB8D1FEF74FFD801B6428F5D9A3
:10287000032016E0FEF748FD06460B4B1B6A13F0DB
:10288000020FC0D1FEF740FD801B41F28833984211
:10289000F3D9032005E0D36923F08053D361BBE76C
:1028A000002002B070BD00BF001002400070004068
:1028B0004004424210B586B00446364B0FCB0DF1B2
:1028C000180C0CE90F0040F20123ADF80430022C83
:1028D00052D0102C04D0012C2CD0002006B010BDFA
:1028E0002D4B5A68186810F08070F7D0C2F38343FC
:1028F00006A90B4413F8100C12F4803F16D0264B97
:102900005B68C3F340430B4413F8142C234BB3FB15
:10291000F2F300FB03F0204B5B6813F4800FDDD172
:1029200040001F4BA3FB00304008D7E71D4B03FBC3
:1029300000F0F0E7184B1B6A40F202321A40B2F581
:10294000817F24D003F44073B3F5007F04D0B3F546
:10295000407F09D00020C1E70F4A526A12F0020FEF
:10296000F5D049F64040B9E70B4B186810F4003039
:10297000B4D04FF22440B1E7FFF702FF064B5B688B
:10298000C3F3813301335B00B0FBF3F0A6E74FF4F0
:102990000040A3E7109100080010024000127A00E6
:1029A000ABAAAAAA00093D0070B4036A23F0010390
:1029B0000362036A4668826922F073020C6844EA83
:1029C000020523F002028B6813430D4CA04209D08C
:1029D0000B4CA0420DD0466085614A684263036299
:1029E00070BC704723F00803CA68134323F0040344
:1029F000EEE726F440764A6932438E691643EAE7E9
:102A0000002C014030B4036A23F480730362036A2C
:102A10004568C26922F073020C68224323F40073F4
:102A20008C6843EA04230F4CA04209D00D4CA0420D
:102A30000ED04560C2614A68C263036230BC704711
:102A400023F40063CC6843EA042323F48063EDE7B6
:102A500025F440554C6945EA04158C6945EA04158E
:102A6000E7E700BF002C014030B4036A23F4805331
:102A70000362036A4468C26922F4E6420D6842EACE
:102A8000052223F400538D6843EA0533074DA8421D
:102A900006D04460C2614A680264036230BC704779
:102AA00024F480444D6944EA8514F2E7002C014087
:102AB00030B4036A056A25F001050562846924F0D3
:102AC000F00444EA021423F00A030B438461036216
:102AD00030BC704730B4056A25F010050562846982
:102AE000036A24F4704444EA023423F0A00343EA66
:102AF00001138461036230BC7047836823F0700364
:102B00000B4343F0070383607047000090F83D30AB
:102B1000DBB2012B27D1022380F83D300268D36855
:102B200043F00103D3600368114A934210D0B3F11C
:102B3000804F0DD0A2F59432934209D002F5806205
:102B4000934205D01A6842F001021A6000207047D3
:102B50009A6802F00702062A07D01A6842F00102BA
:102B60001A6000207047012070470020704700BFA6
:102B7000002C01407047704770477047704710B590
:102B8000044603681A6912F0020F11D0DA6812F0D5
:102B9000020F0DD06FF002021A6101230377036860
:102BA0009B6913F0030F70D0FFF7E6FF0023237734
:102BB00023681A6912F0040F12D0DA6812F0040FB9
:102BC0000ED06FF004021A610223237723689B69F9
:102BD00013F4407F5FD02046FFF7CEFF002323771A
:102BE00023681A6912F0080F12D0DA6812F0080F81
:102BF0000ED06FF008021A61042323772368DB6983
:102C000013F0030F4ED02046FFF7B6FF00232377C3
:102C100023681A6912F0100F12D0DA6812F0100F40
:102C20000ED06FF010021A61082323772368DB6946
:102C300013F4407F3DD02046FFF79EFF002323770B
:102C400023681A6912F0010F03D0DA6812F0010F3D
:102C500036D123681A6912F0800F03D0DA6812F0B7
:102C6000800F34D123681A6912F0400F03D0DA685C
:102C700012F0400F32D123681A6912F0200F03D0EE
:102C8000DA6812F0200F30D110BDFFF774FF204634
:102C9000FFF773FF8AE72046FFF76DFF2046FFF737
:102CA0006CFF9BE72046FFF766FF2046FFF765FFB6
:102CB000ACE72046FFF75FFF2046FFF75EFFBDE76A
:102CC0006FF001021A61204600F076FDC1E76FF057
:102CD00080021A61204600F068FAC3E76FF04002F4
:102CE0001A612046FFF74AFFC5E76FF020021A611C
:102CF000204600F059FAC7E703681B4A90420AD001
:102D0000B0F1804F07D0A2F59432904203D002F583
:102D10008062904203D123F070034A681343124A41
:102D200090420AD0B0F1804F07D0A2F59432904281
:102D300003D002F58062904203D123F44073CA6845
:102D4000134323F080034A69134303608B68C36213
:102D50000B688362044B984202D0012343617047A1
:102D60000B690363F9E700BF002C014040B310B5C5
:102D7000044690F83D30F3B1022384F83D302146FB
:102D800051F8040BFFF7B8FF012384F8463084F8AC
:102D90003E3084F83F3084F8403084F8413084F885
:102DA000423084F8433084F8443084F8453084F865
:102DB0003D30002010BD80F83C3000F025FFDBE7FF
:102DC0000120704740B310B5044690F83D30F3B190
:102DD000022384F83D30214651F8040BFFF78CFFA5
:102DE000012384F8463084F83E3084F83F3084F87C
:102DF000403084F8413084F8423084F8433084F81D
:102E0000443084F8453084F83D30002010BD80F80F
:102E10003C30FFF7AFFEDBE70120704730B4036AB8
:102E200023F010030362036A4468826922F4E642D5
:102E30000D6842EA052223F020038D6843EA05135A
:102E40000E4DA84209D00D4DA8420ED044608261BB
:102E50004A688263036230BC704723F08003CD6808
:102E600043EA051323F04003EDE724F440644D6981
:102E700044EA85048D6944EA8504E7E7002C0140B3
:102E800038B590F83C30012B60D004460D46012344
:102E900080F83C300C2A1AD8DFE802F0071919191B
:102EA0001D1919193119191944000068FFF77CFD23
:102EB0002268936943F0080393612268936923F0C1
:102EC000040393612268936929690B43936100208D
:102ED00084F83C0038BD0068FFF7A0FF22689369C2
:102EE00043F4006393612268936923F480639361E0
:102EF00022689369296943EA01239361E7E700683F
:102F0000FFF780FD2268D36943F00803D36122688C
:102F1000D36923F00403D3612268D36929690B4381
:102F2000D361D4E70068FFF79FFD2268D36943F4BB
:102F30000063D3612268D36923F48063D36122687C
:102F4000D369296943EA0123D361C0E70220C1E7BD
:102F500010B4846824F47F4442EA03220A432243E3
:102F6000826010BC704790F83C30012B66D010B5E1
:102F70000446012380F83C30022380F83D3002688B
:102F8000936823F47F4323F0770393600B68602BEF
:102F900040D022D8402B47D00BD9502B0ED1CA6835
:102FA00049680068FFF784FD50212068FFF7A5FD00
:102FB00004E0202B0CD008D9302B09D0012384F851
:102FC0003D30002084F83C0010BD0BB1102BF5D132
:102FD00019462068FFF791FDF0E7702B0ED0B3F58E
:102FE000005FEBD1CB684A6889680068FFF7B0FFE3
:102FF0002268936843F480439360DFE7CB684A68B4
:1030000089680068FFF7A4FF2268936843F077039C
:103010009360D3E7CA6849680068FFF75BFD6021E9
:103020002068FFF76AFDC9E7CA6849680068FFF7CA
:103030003FFD40212068FFF760FDBFE70220704799
:1030400010B401F01F01012303FA01F4036A23EA1B
:1030500004030362036A02FA01F10B43036210BC2A
:103060007047000010B50446084651BB94F83E3046
:10307000DBB2013B18BF0123002B5BD1002839D103
:10308000022384F83E30012201462068FFF7D8FF72
:1030900023682A4A93423DD02368284A93423ED06F
:1030A000B3F1804F3BD0A2F59432934237D002F572
:1030B0008062934233D01A6842F001021A60002005
:1030C00039E0042908D008290DD094F84130DBB24A
:1030D000013B18BF0123CFE794F83F30DBB2013B3F
:1030E00018BF0123C8E794F84030DBB2013B18BF9A
:1030F0000123C1E7042805D0082807D0022384F85B
:103100004130C0E7022384F83F30BCE7022384F853
:103110004030B8E75A6C42F400425A64BCE79A68FF
:1031200002F00702062A07D01A6842F001021A606C
:10313000002000E0012010BD0020FCE7002C014031
:1031400090F83C30012B2BD030B4012380F83C3078
:10315000022380F83D3003685C689D6824F07004A9
:103160000A6822435A6003680E4A93420AD0B3F1B8
:10317000804F07D0A2F59432934203D002F58062CB
:10318000934204D125F080054A6815439D600123D0
:1031900080F83D30002380F83C30184630BC704742
:1031A00002207047002C01407047704710B504465C
:1031B0000268136923F44053C1680B4313618368A9
:1031C0000269134342691A430168CB6823F4B05380
:1031D00023F00C031343CB600268536923F440735C
:1031E00081690B4353610268124B9A421FD0FFF76B
:1031F000B7FA00EB800303EB830362689200B3FB32
:10320000F2F20D48A0FB02314909642303FB1123AC
:103210001B013233A0FB03235B0903F0F00202EB36
:10322000011203F00F03216813448B6010BDFFF7F8
:10323000A7FADEE7003801401F85EB512DE9F8437E
:1032400005460F4616469946DDF820802C6824680E
:1032500037EA04030CBF01240024B4421FD1B8F1A3
:10326000FF3FF3D0B8F1000F05D0FEF74DF8A0EB0B
:1032700009004045EAD92A68D36823F4D073D360A3
:103280002A68536923F001035361202385F83D30F8
:1032900085F83E30002385F83C30032000E0002014
:1032A000BDE8F88358B310B5044690F83D300BB331
:1032B000242384F83D302268D36823F40053D3607C
:1032C0002046FFF773FF2268136923F490431361CC
:1032D0002268536923F02A0353612268D36843F4B8
:1032E0000053D36000202064202384F83D3084F80C
:1032F0003E3010BD80F83C3000F0BEFCD8E7012025
:1033000070472DE9F04182B01E4690F83D30DBB2A7
:10331000202B54D104460D469046002953D0002A54
:1033200053D090F83C30012B51D0012380F83C3031
:1033300000230364212380F83D30FDF7E5FF0746B5
:10334000A4F82480A4F82680A368B3F5805F05D094
:103350004FF00008002384F83C3012E0236913B1D9
:103360004FF00008F6E7A8460025F3E738F8023BDF
:103370002268C3F308035360E28C92B2013A92B21E
:10338000E284E38C9BB273B100963B46002280211D
:103390002046FFF753FFE0B9002DE7D015F8012BC9
:1033A00023685A60E8E700963B4600224021204609
:1033B000FFF744FF78B9202384F83D3000E0022075
:1033C00002B0BDE8F0810120FAE70120F8E7022011
:1033D000F6E70320F4E70320F2E72DE9F04182B09D
:1033E0001E4690F83E30DBB2202B5CD104460D46E1
:1033F000904600295BD0002A5BD090F83C30012B2E
:1034000059D0012380F83C3000230364222280F845
:103410003E200363FDF778FF0746A4F82C80A4F84C
:103420002E80A368B3F5805F05D04FF0000800231D
:1034300084F83C3017E0236913B14FF00008F6E739
:10344000A8460025F3E723685B68C3F3080328F860
:10345000023B03E023685B682B700135E28D92B27A
:10346000013A92B2E285E38D9BB2BBB100963B4636
:10347000002220212046FFF7E1FEF0B9002DE2D026
:10348000A368B3F5805FE5D013B92369002BE1D0C1
:1034900023685B6803F07F032B70DEE7202384F84A
:1034A0003E30002000E0022002B0BDE8F0810120A3
:1034B000FAE70120F8E70220F6E70320F4E700002E
:1034C00000B585B000230193029303931B481C4A67
:1034D00002604FF480728260037303754FF4C02260
:1034E000C261436003230361FEF794F9D0B901235D
:1034F000019302930023039301A91048FDF7E6FF0F
:1035000098B90223029301A90C48FDF7DFFF78B9AF
:103510000323029301A90948FDF7D8FF58B905B064
:103520005DF804FB00F070F9E1E700F06DF9E8E701
:1035300000F06AF9ECE700F067F9F0E7E009002035
:103540000024014010B586B0002302930393049336
:1035500005930268234B9A4201D006B010BD044681
:1035600003F56C439A6942F400729A619A6902F415
:1035700000720092009A9A6942F004029A619B6973
:1035800003F004030193019B0E230293032303938F
:1035900002A91548FEF7D6FB1448154B036000231B
:1035A000436083608023C3604FF4807303614FF4F2
:1035B00080634361202383614FF40053C361FEF7AE
:1035C000AFFA58B9094B23625C6200220221122033
:1035D000FEF738FA1220FEF769FABEE700F014F998
:1035E000F0E700BF0024014000080140100A00205D
:1035F0000800024000B583B00A4B5A6942F001024C
:103600005A615B6903F001030193019B002211469B
:103610000B20FEF717FA0B20FEF748FA03B05DF80F
:1036200004FB00BF0010024030B589B000240494B0
:103630000594069407941D4B9A6942F010029A6112
:103640009A6902F010020092009A9A6942F02002F0
:103650009A619A6902F020020192019A9A6942F0F5
:1036600004029A619A6902F004020292029A9A692B
:1036700042F008029A619B6903F008030393039BDD
:103680000B4D22464FF400512846FEF76BFC4FF4D9
:10369000005304930123059306940223079304A97E
:1036A0002846FEF74FFB09B030BD00BF00100240B6
:1036B0000010014008B50B480B4B03600B4B4360F7
:1036C00000238360C3604FF48042026143618361E1
:1036D000C3610362FEF756FC00B908BD00F094F820
:1036E000FBE700BF540A002000540040A086010000
:1036F00010B586B0002302930393049305930268E8
:10370000114B9A4201D006B010BD104CA36943F092
:103710000803A361A36903F008030093009BC0237F
:103720000293122303930323059302A90848FEF78B
:1037300009FBE36943F40013E361E36903F4001355
:103740000193019BDFE700BF0054004000100240DE
:10375000000C014010B5074C2046FFF7D7F90421B3
:103760002046FFF77FFC962203490448FDF78EFFB1
:1037700010BD00BF0C0C0020A80A0020E0090020AA
:1037800010B5FDF7DBFD094C23885A1C2280084A3E
:1037900022F813004FF400510648FEF7E9FB238896
:1037A000962B00D010BD00222280FBE7D40B002016
:1037B000A80A00200010014008B5962202490348DB
:1037C000FDF764FF08BD00BFA80A0020E009002043
:1037D00070B50E4600240FE0451C4FF6FF73012222
:1037E00001460848FFF78DFD064B1B681B6813F068
:1037F000200FF9D101342846A642EDDC0A2000F062
:10380000D3FB70BD540C002072B6FEE700B595B036
:1038100000230D930F93109305930693079308933A
:103820000993019302930393049301210A914FF4A6
:1038300080320B920C930E910223119312924FF44B
:10384000E01313930AA8FEF791FCC8B90F23059360
:1038500002210691002307934FF480620892099396
:1038600005A8FEF7C1FE68B9022301934FF4004397
:10387000039301A8FEF794FF30B915B05DF804FB7F
:10388000FFF7C2FFFFF7C0FFFFF7BEFF0000000019
:1038900080B5A8B0FDF71AFDFFF7B8FFFFF7C4FE2B
:1038A000FFF708FF00F0CEF9FFF7A4FEFFF708FED0
:1038B00000F056F94448FEF731F8444800F09CF80F
:1038C000FFF748FF51E0424BD3E9008942464B469F
:1038D00020462946FCF70CFF002867D03C4BC3E983
:1038E00000453C4ED6E90023CDE9002322462B4675
:1038F000394800F045FB02A800F0FAF9374B187878
:1039000000F00CFA364B187800F008FA354B1878AE
:1039100000F004FAD6E90001FCF712FF00F038FAD3
:10392000314BD3E90001FCF70BFF00F031FA2F4BCC
:10393000D3E90001FCF704FF00F02AFA244BD3E995
:103940000001FCF7FDFE00F023FA294BD3E900014A
:10395000FCF7F6FE00F01CFA00F054FA014602A84B
:10396000FFF736FF1420FDF7D5FC224B1888FCF733
:10397000EDFF4FF06651FCF7EBFBFCF701FE10A3E7
:10398000D3E90023FDF7B0F804460D46164BC3E912
:103990000045164BD3E9006732463B46FCF7C6FEAE
:1039A000002890D0114BC3E900459AE742464B46A8
:1039B00030463946FCF784FC064BC3E9000190E72A
:1039C0006666666666660A40E0090020540C0020C0
:1039D00008000020F80B002024910008D60B0020DE
:1039E000000C0020E80B0020E00B0020F00B002072
:1039F000D80B0020A80A002008B5054B1860054B1D
:103A00001868002302221946806800F0D5FA08BD24
:103A1000040C00201400002010B5013801280AD839
:103A200014464FF0FF3392B207480068FFF769FC75
:103A300040B9204610BD00F029FA092303604FF079
:103A4000FF30F7E70520F5E7040C002008B548B97A
:103A50004FF0FF33012208480068FFF7BEFC40B971
:103A6000012008BD00F012FA092303604FF0FF3077
:103A7000F7E70520F5E700BF040C002082B00E4BED
:103A80009A6942F001029A619A6902F00102009279
:103A9000009ADA6942F08052DA61DB6903F0805300
:103AA0000193019B054A536823F0E06343F00073E0
:103AB000536002B0704700BF001002400000014098
:103AC000FEE7FEE7FEE7FEE7FEE770477047704758
:103AD00008B5FDF70DFC08BD08B50248FEF790F8E3
:103AE00008BD00BF100A002008B50248FDF759FCC8
:103AF00008BD00BFE009002008B50248FFF73FF805
:103B000008BD00BF0C0C002008B503460B4A126824
:103B100042B10A4A106803446A46934206D8074AEB
:103B2000136008BD054A06491160F2E700F0AEF9DE
:103B30000C2303604FF0FF30F3E700BF080C0020B8
:103B4000080D00204FF0FF3070474FF400534B60DA
:103B50000020704701207047002070477047000028
:103B600000B58FB000230A930B930C930D93089329
:103B70000993019302930393049305930693079388
:103B800020484FF0804202604722426083600A2250
:103B9000C260036180238361FFF7E8F818BB4FF42C
:103BA00080530A930AA91748FFF7DDF9F0B91548C1
:103BB000FFF708F9E8B900230893099308A9114809
:103BC000FFF7BEFAC0B96023019300230293039369
:103BD000059304220DEB02010A48FFF751F970B971
:103BE0000FB05DF804FBFFF70FFED8E7FFF70CFE00
:103BF000DDE7FFF709FEDEE7FFF706FEE3E7FFF785
:103C000003FEEDE70C0C00200368B3F1804F00D0F9
:103C1000704700B583B003F50433DA6942F001025E
:103C2000DA61DB6903F001030193019B00220121AA
:103C30001C20FDF707FF1C20FDF738FF03B05DF8DF
:103C400004FB000008B50A480A4B03604FF4165302
:103C5000436000238360C36003610C22426183617F
:103C6000C361FFF71FFB00B908BDFFF7CDFDFBE700
:103C7000540C00200038014010B586B00023029398
:103C80000393049305930268174B9A4201D006B040
:103C900010BD03F558439A6942F480429A619A69CB
:103CA00002F480420092009A9A6942F004029A61FA
:103CB0009B6903F004030193019B4FF4007302938B
:103CC0000223039303230593084C02A92046FEF721
:103CD00039F84FF48063029300230393049302A9FD
:103CE0002046FEF72FF8D2E70038014000080140D7
:103CF000064B1860064B01221A800023054A1370F8
:103D0000A5220270044A1370704700BFA00C002067
:103D1000A40C00209D0C00209C0C0020184B1B784C
:103D2000012B00D97047E8B1164B1988164B18685B
:103D3000164B1A78012303FA02F2435C13434354EF
:103D4000124A13780133DBB21370072B06D91346DE
:103D500000221A700B4A138801331380084B01228A
:103D60001A70DFE7074B1988074B1868074B1A785A
:103D7000012303FA02F2435C23EA02034354DFE720
:103D80009C0C0020A40C0020A00C00209D0C002006
:103D9000174B1B78052B2AD830B4164B1B7833B140
:103DA000154A138801331380124B00221A701349ED
:103DB0000860134A104B1C881568285508680412BF
:103DC0001888013015682C54B1F902501888023057
:103DD00014682554C87819880331126850541A8819
:103DE00004321A80024B05221A7030BC70477047AB
:103DF0009C0C00209D0C0020A40C0020980C00209E
:103E0000A00C0020012200230B490988914206DD05
:103E10000A490968895C0B44DBB20132F4E70748C0
:103E200002685354044A1388013301685A20C85465
:103E30001088023080B27047A40C0020A00C002033
:103E40000C480D490D4A002302E0D458C4500433F5
:103E5000C4188C42F9D30A4A0A4C002301E01360CB
:103E60000432A242FBD3FFF779FE00F015F8FFF70A
:103E70000FFD704700000020C0090020FC930008DF
:103E8000C0090020040D0020FEE70000014B186867
:103E9000704700BF1400002070B50D4E0D4D761B0D
:103EA000B61006D0002455F8043B01349847A642CA
:103EB000F9D1094E094D05F01FF9761BB61006D051
:103EC000002455F8043B01349847A642F9D170BD4F
:103ED000F0930008F0930008F8930008F0930008AE
:103EE000F0B4860746D0541E002A3CD00346CAB21E
:103EF00001E0013C37D303F8012B9D07F9D1032CD6
:103F00002AD9CDB245EA05250F2C45EA054534D915
:103F1000A4F1100222F00F0C03F1200716096744E8
:103F200003F1100242E9045542E902551032BA4247
:103F3000F8D1721C14F00C0F03EB021204F00F0600
:103F400013D0331F23F003030433134442F8045BFC
:103F50009342FBD106F003042CB1CAB21C4403F80F
:103F6000012B9C42FBD1F0BC704734461346002C19
:103F7000F3D1F8E714460346C1E71A462646E0E7C0
:103F80000FB400B5074983B004AB086853F8042B9D
:103F90008168019300F0E0F803B05DF804EB04B031
:103FA000704700BF14000020024B01461868826869
:103FB00004F0E4B8140000202DE9F043654D0446F8
:103FC000D5F800900F4690461E4683B0B9F1000F19
:103FD00003D0D9F83830002B79D0B8F1020F06D0D1
:103FE000B8F1010F00F2A380002EC0F2A080636E32
:103FF000D90752D52146484602F0E4FF216B41B172
:1040000004F14003994202D0484603F0D7F8002358
:1040100023630023B4F90C50A36163602B0665D4BD
:1040200025F44A6525F00305B8F1020FA58164D097
:1040300001AB6A462146484603F0F6F9A3891843C6
:10404000A081002E30D0002F2FD0D9F83830002B8F
:1040500039D0009BC4E90476B342B4F90C30276030
:104060001CBF43F40063A381B8F1010F04BF43F008
:104070000103A3819AB213F008032CD0D10754D5C1
:1040800000217642A661666EA16016F0010627D077
:104090000026304603B0BDE8F083A3899A05A9D471
:1040A000A06D03F0BDF9A5E7009E304603F034FA99
:1040B000074600283ED0A38943F08003A381D9F8A6
:1040C0003830002BC5D1484602F0D8FFC1E748463A
:1040D00002F0D4FF81E7A360666E16F00106D7D127
:1040E00093051BD5304603B0BDE8F08348462169EF
:1040F00003F064F8B4F90C5092E700260023012184
:10410000626E45F00205A360D70704F14303A58161
:10411000616123602361E5D4A805E3D4A06D03F0B9
:1041200081F9304603B0BDE8F083A660D4E74FF0D4
:10413000FF36D7E7009DB54204D0284603F0ECF9DE
:10414000074620B94FF0FF36B4F90C50D6E72E469B
:10415000B1E700BF140000202DE9F04FD7B01C4696
:104160008B461746814603F053F903680E941846B0
:10417000189304F0CDF81790B9F1000F04D0D9F8D6
:104180003830002B00F0EA81DBF8643013F0010FC7
:10419000BBF90C309AB202D19D0540F1B58690046E
:1041A0000AD4DBF8642043F4005322F40051ABF846
:1041B0000C309AB2CBF86410110740F1BB80DBF8E9
:1041C0001030002B00F0B68002F01A030A2B00F02A
:1041D000BF80002300210022CDE92B33CDE91A3323
:1041E000CDE91C33139319930A932DAB98462A9368
:1041F0003B78DA46CDE91412002B00F060813C4692
:1042000004E014F8013F002B00F0B980252BF8D111
:10421000E51B40F0B7802378002B00F0508100238D
:104220000B938DF88B3007934FF0FF33667804F1D2
:10423000010B20212B2409930BF1010BA6F1200384
:104240005A2B00F2BB80DFE813F0EA02B900B90094
:10425000E302B900B900B900BF02B900B9006A00B1
:104260005202B90033025E02B90057025B005B00E4
:104270005B005B005B005B005B005B005B00B90008
:10428000B900B900B900B900B900B9004201B900DC
:10429000C1019401420142014201B900B900B900D3
:1042A000B900AF02B900B900FB01B900B900B9000B
:1042B000D501B9007802B900B900B707B900B90053
:1042C000B900B900B900B900B900B9004201B9009C
:1042D000C1019801420142014201A50298018D01EC
:1042E000B9009B02B9003A02FF0189028D01B900B1
:1042F000D50172009207B900B9009607B9007200A3
:104300000022A6F130031BF8016B02EB820203EBE3
:104310004202A6F13003092BF5D90B928EE70E9BD2
:1043200053F8042B002A0B920E93C0F2BE819BF827
:10433000006081E75946484601F05EFD002841F0E3
:104340009B83BBF80C2002F01A030A2B7FF441AFC9
:10435000BBF90E30002BFFF63CAFDBF86430DE0714
:1043600002D4950541F1808123463A465946484694
:1043700001F0FEFC0A900A9857B0BDE8F08FE51BEB
:1043800000F09D80DDE92B3201332A44072BC8E978
:104390000075CDE92B3206DC08F108080A9A23786B
:1043A0002A440A9238E7514648462AAA04F04EF8B1
:1043B000002841F00E840DF1B408EFE7002E7ED006
:1043C000002301211A4608918DF8F4608DF88B3096
:1043D0000D9309931293169310930C913DAF079B85
:1043E00013F0020302D0089902310891079911F0E5
:1043F00084010F9105D10B9908980D1A002D00F337
:104400009C832C9C72B101202B9A044402440DF130
:104410008B01072ACDE92B24C8E9001000F30B8497
:1044200008F108086BB102212B9B0C44013323AA2D
:10443000072BCDE92B34C8E9002100F30B8408F1E8
:1044400008080F9B802B00F07882099B0C9A9D1A1C
:10445000002D00F3B282079BDD0500F119822B9B32
:104460000C9A01331444072BC8E900722C942B9347
:1044700000F3D58308F10808079B5D0705D50B9B62
:10448000089A9D1A002D00F3F283DDE90A3208999B
:104490008A42ACBF9B185B180A93002C40F0C18283
:1044A00000232B930D9B1BB148460D9902F086FE0D
:1044B0005F460DF1B4083B78002B7FF4A0AE2C9B37
:1044C000D346002B40F0FB8700232B93B7E20E9BD3
:1044D000073323F007031946F1E80223CDE914233B
:1044E000DDE9143424F000441D4618460E914FF0C7
:1044F000FF322146B04BFCF709FD002840F06F85E4
:10450000284621464FF0FF32AB4BFCF7FBF8002862
:1045100040F06585DDE9140100220023FCF7E8F88E
:10452000002841F0E9809DF88B2003200021A34F53
:10453000A34B08900D91472EC8BF1F46079C0C90B7
:1045400024F0800407940991129116911091002A89
:104550003FF445AF089B0133089340E7484602F01B
:104560008DFD11E6079B9BF8006043F02003079345
:1045700062E6079B43F010030793079B9C0640F1FC
:104580008E840E9B073323F007031946F1E80223BC
:1045900014461D460E91002A73F10003C0F2F88400
:1045A000099B0133079B00F0098323F0800354EA41
:1045B0000502089340F00383099A002A40F004831F
:1045C0000793002356AF09930C9353E10021012474
:1045D0000E9B0A4653F8040B0894CDE90D138DF891
:1045E0008B108DF8F40009911291169110910C9492
:1045F0003DAFF4E600250E9C8DF88B5054F8047BFB
:10460000002F00F02386099A1346013300F0168725
:104610002946384603F036FA0D90002801F0A681AD
:104620002B460D9A0995D21B0C9222EAE27208924F
:104630000E949DF88B200D9312931693109386E79A
:10464000079B43F010030793079B9A0640F14884A9
:104650000E9B073323F00703F3E802450E93079BF5
:1046600023F480630893002300228DF88B20099A9D
:104670001146013100F0DF80089921F08001079197
:1046800054EA050140F0D580002A40F03882002B22
:1046900097D1089B13F001030C9300F0658430233D
:1046A0000DF257178DF85731E4E00B9B5B420B93EB
:1046B000079B9BF8006043F004030793BCE5079B4E
:1046C0009D0600F17084079BDC0600F17B86079B4A
:1046D000580600F10687079B990540F173860E9BEB
:1046E0000A9953F8042B5F4611700E93E3E69BF88A
:1046F00000608DF88B409FE5079B9BF8006043F0BE
:104700008003079398E55A4612F8016B2A2E01F0B0
:104710000783A6F13003092B934698BF002201F2CC
:104720006F811BF8016B02EB820203EB4202A6F1E0
:104730003003092BF5D9099280E5079B43F010035C
:104740000893089B9D0640F1BB830E9B073323F023
:104750000703F3E802450E93012385E747F630028D
:104760000E9B079953F8044B41F002010E93154B31
:1047700000251993782602230891ADF88C2073E761
:104780009BF80060079B6C2E00F0418543F01003FE
:10479000079351E59BF80060079B682E00F04D855C
:1047A00043F04003079347E5079B9BF8006043F005
:1047B0000803079340E500BFFFFFEF7F6491000807
:1047C0006891000874910008484602F021FE436891
:1047D00018461C9303F09CFD034648461D461D9356
:1047E00002F016FE826820211A92002D3FF49FAD40
:1047F0001A9B002B3FF49BAD1A9B1B78002B3FF4B8
:1048000096AD079B9BF8006043F48063079313E524
:10481000079B9BF8006043F0010307930CE59DF8AC
:104820008B30002B7FF483AD9BF800608DF88B10EC
:1048300002E5079A0892012B00F0C181022B00F0DB
:10484000668156AFE20842EA4572E90804F00703C0
:104850000D461446303354EA05013A4607F8013D47
:10486000F0D108990846C00700F1D38256ABDB1B94
:1048700007910C93002309990D93129316931093AB
:104880000C9B9DF88B208B42B8BF0B4608935EE6CD
:10489000652E40F3E580DDE9140100220023FBF7DB
:1048A0001DFF002800F01B8201212B9BCB4A0B44EB
:1048B0000C44072BCDE92B34C8E9002100F36785B0
:1048C00008F10808249B139A934280F218832B9BCB
:1048D000179A013318991444072BC8E900122C9435
:1048E0002B9300F39D8408F10808139B5D1E002D97
:1048F0007FF7C2AD102D40F35785B94F10262B9B83
:104900000F9705E008F10808103D102D40F34F8582
:1049100001331034072BCDE92B34C8E90076F1DDE3
:10492000514648462AAA03F091FD002840F08180B4
:10493000DDE92B340DF1B408E6E70B9B089A9D1ACC
:10494000002D7FF782AD102D41F3A780A4482146AA
:10495000102304462B9A0F9004E0103D102D08F10F
:10496000080817DD01321031072ACDE92B21C8E9EB
:104970000043F2DD514648462AAA03F067FD0028AD
:1049800057D1DDE92B21103D102D4FF010030DF113
:10499000B408E7DC0C4601320F9B2C44072ACDE912
:1049A0002B24C8E9003500F30A84099B0C9A08F10E
:1049B00008089D1A002D7FF74EAD102D40F37A8523
:1049C00087482146102304462B9A0F9004E0103D9F
:1049D000102D08F1080816DD01321031072ACDE943
:1049E0002B21C8E90043F2DD514648462AAA03F0CC
:1049F0002DFDF0B9DDE92B21103D102D4FF01003F6
:104A00000DF1B408E8DC0C4601320F9B2C44072A58
:104A1000CDE92B24C8E9003500F3348208F10808F9
:104A200019E5514648462AAA03F010FD00283FF434
:104A300037ADD3460D9911B1484602F0BFFBDBF804
:104A4000643013F0010FBBF80C3002D1980540F12F
:104A50007784590601F11C800A9857B0BDE8F08FA1
:104A6000139B012B40F3B78101232B9D1C441D4454
:104A7000072D2C94C8F800702B95C8F8043000F36B
:104A8000FF8308F10808179B0135189A1C44072D6D
:104A9000CDE92B54C8E9002300F3008408F108088D
:104AA0000023DDE914010022FBF718FE139B002808
:104AB00040F0BD81013B013501371C44072DCDE994
:104AC0002B54C8F80070C8F8043000F3938308F141
:104AD00008081B9A0135144426AB072DCDE92B5449
:104AE000C8E900327FF7C6AC514648462AAA03F00F
:104AF000ADFC00289DD12C9C0DF1B408BCE4012B29
:104B000000F0D087022B079B08937FF49AAE199888
:104B100056AF230943EA0573290904F00F020D4635
:104B20001C46835C07F8013D54EA0503F1D1089B5C
:104B3000079356ABDB1B0C939CE6102D40F3388794
:104B4000DDE92B211E930B46394610243746564685
:104B5000CA46894604E0103D102D08F1080817DD0B
:104B6000013220491033072ACDE92B23C8E900146C
:104B7000F1DD314650462AAA03F068FC002840F0D7
:104B8000F883DDE92B23103D102D0DF1B408E7DC8F
:104B90004846D146B2463E46074619461E9B6C180B
:104BA00001321049072ACDE92B24C8E9001500F38A
:104BB000CF839DF88B2008F1080823E40893002D8B
:104BC00008BF0A2C80F07883089B303407930123B8
:104BD0008DF857410C930DF257174BE6A49100083E
:104BE000B8910008A89100082B9B179901331898D9
:104BF0000C44072BC8E900012C942B9300F3258566
:104C000008F10808002AC0F2FF86139A0133144401
:104C1000072BCDE92B34C8E900727FF72BAC514646
:104C200048462AAA03F012FC00287FF402AF2C9C0D
:104C30000DF1B40820E4514648462AAA1E9303F019
:104C400005FC00287FF4F5AE2C9C1E9B0DF1B408EA
:104C5000FFF7E8BB514648462AAA03F0F7FB0028B5
:104C60007FF4E7AE2C9C0DF1B408FFF7EABB102DE2
:104C700040F3FF8610262B9B04E0103D102D08F119
:104C8000080817DD0133B94A1034072BCDE92B345E
:104C9000C8E90026F1DD514648462AAA03F0D6FBB2
:104CA00000287FF4C6AEDDE92B34103D102D0DF148
:104CB000B408E7DC0133AD4A2C44072BCDE92B3493
:104CC000C8E900257FF7E1AB514648462AAA03F020
:104CD000BDFB00287FF4ADAE2C9CFFF7D6BB249A19
:104CE000002A40F31A81109B139A9342A8BF1346DF
:104CF000002B1D460BDD2B9B2C440133072BC8E9F1
:104D000000752C942B9300F3DB8508F10808109BA9
:104D1000002DA8BF5B1B002B1D4600F36783109B73
:104D20003B441E46079B590500F10185249B139ABD
:104D3000934203DB079AD20740F1CB832B9A179952
:104D4000013218980C44072AC8E900012C942B92D0
:104D500000F3C38508F10808139ABD18AD1BD31AD8
:104D60009D42A8BF1D46002D0BDD2B9A2C4401321D
:104D7000072AC8E900652C942B9200F31D8608F1E0
:104D80000808002DB4BF1D465D1B002D7FF774ABD6
:104D9000102D40F30983764F10262B9B0F9705E0CB
:104DA00008F10808103D102D40F301830133103441
:104DB000072BCDE92B34C8E90076F1DD5146484692
:104DC0002AAA03F043FB00287FF433AEDDE92B343D
:104DD0000DF1B408E6E7079BDE073FF545AE01237A
:104DE0002B9D1C441D44072D2C94C8F800702B9556
:104DF000C8F804307FF76BAE514648462AAA03F044
:104E000025FB00287FF415AEDDE92B540DF1B40825
:104E10005FE6302B3FF48BAE3023023A07F8013CBB
:104E2000089956AB9B1A174607910C9322E55E1E14
:104E3000002E7FF74EAE102E40F34F874C4BCDF82F
:104E400024B01027D3460F93CA46994605E008F1CF
:104E50000808103E102E40F3BF8101351034072D95
:104E6000CDE92B54C8E90097F1DD594650462AAAEE
:104E700003F0ECFA002840F0EC85DDE92B540DF14D
:104E8000B408E6E7514648462AAA03F0DFFA0028AC
:104E90007FF4CFAD2C9C0DF1B408FFF7DCBA079B73
:104EA000D80669D4079B590640F1F6820E9B53F849
:104EB000044B24B2E5170E9322462B46FFF76BBB3B
:104EC000089BDC067CD4089B580640F1CA820E9AE7
:104ED000012352F8044B00250E92A4B2FFF7C4BB85
:104EE000079BDB0674D4079B5F0640F1C9820E9BCB
:104EF000002553F8044B0E93A4B2FFF7B0BB079BF9
:104F0000D8077FF5B9AAE2E4DBF8580002F088FA86
:104F1000BBF90C309AB2FFF742B901202B9B15491F
:104F200003440444072BCDE92B34C8E9001000F3F7
:104F3000AC8408F10808002A7FF456AE079B139A48
:104F400003F0010313433FF497AA2B9B179A0133F5
:104F500018991444072BC8E900122C942B9300F3E2
:104F6000748308F1080850E656AF83E4A89100085E
:104F7000B8910008A49100080E9B53F8044B2246F8
:104F8000E5170E932B46002A73F10003BFF608AB1A
:104F90002D23079A64428DF88B3065EB450501237C
:104FA0000892FFF764BB0E9B5F4653F8041B0E93F9
:104FB0000A9BDD171A462B46C1E90023FFF77BBA8F
:104FC0000E9A012352F8044B00250E92FFF74CBBBA
:104FD0000E9B002553F8044B0E93FFF740BBDDE911
:104FE00014010B460246FBF791FF0146002840F0F2
:104FF000DD85612E00F08285412E00F07B82099BC9
:1050000026F020055A1C089500F0CC85472D00F0AD
:10501000A385DDE91401079B43F4807312930B46CB
:10502000002BC0F2398600220F931E920D920C9035
:10503000462D0C9A00F07A84452D4FF002000F9B0C
:1050400040F05984099900904C1C28A925A8049186
:1050500024A9CDE902100194484600F0D5FF074687
:105060000444129B079D0793002200230C980F997C
:10507000FBF734FB002800F02B832346DB1B139344
:10508000089B472B00F0F682089B462B00F07A84A1
:10509000249B1093109B089A013B412A249300F013
:1050A000F5850021F2B2002B8DF89820B6BF2D2295
:1050B0002B22109B8DF89920B8BFC3F10103092B57
:1050C00040F3D5850DF1A70E72469C46C24C604652
:1050D000114684FB0C234FEAEC72C2EBA30202EBF5
:1050E0008203ACEB430330336328944601F8013C60
:1050F00001F1FF32EBDC63463033D8B28B1E9E45A4
:1051000002F8010C40F228860DF19A0301E012F832
:10511000010B964503F8010BF9D10DF1A9030DF12F
:105120009A025B1A134426AA9B1A1B93139B1B9A81
:10513000012B1A440C9240F3B2850C9B179A13442E
:105140000C9300231293169310930C9B25F4806507
:1051500045F4807223EAE373079208931E9B002BA9
:1051600040F0AF829DF88B200993FFF7F0B9079BC1
:105170000893FFF7E6BA994B1993079B990675D5E3
:105180000E9B073323F00703F3E802450E93079ABB
:10519000D7070AD554EA050307D0302342F00202AC
:1051A0008DF88D6007928DF88C30079A022322F4D7
:1051B00080620892FFF758BA894B1993DDE7514690
:1051C00048462AAA03F042F900287FF432AC2C9C0E
:1051D0000DF1B408FFF739B9D146DA46DDF824B04D
:1051E00001350F9B3444072DCDE92B54C8E9003617
:1051F0007FF76DAC514648462AAA03F027F90028EC
:105200007FF417ACDDE92B540DF1B40861E443F0F1
:1052100020039BF8016007930BF1010BFFF70CB81B
:10522000514648462AAA03F011F900287FF401AC40
:105230002C9C0DF1B408FFF758BB43F400739BF8A6
:10524000016007930BF1010BFEF7F6BF099B3A468D
:10525000062B28BF062309971297169710970D97CC
:105260000893604F0E940C93FFF771B9079BDA0611
:1052700040F183800E9B002553F8044B0E9386E784
:10528000514648462AAA03F0E1F800287FF4D1AB42
:10529000DDE92B540DF1B408FFF7F5BB5146484644
:1052A0002AAA03F0D3F800287FF4C3ABDDE92B541E
:1052B0000DF1B408FFF7F4BB0022089BCDF81CB039
:1052C00003F480630C96CDF834A09346CA461E467C
:1052D000C14656AFDDF868800BE00A220023204665
:1052E0002946FBF751FE002D08BF0A2C1BD30446AC
:1052F0000D460A22002320462946FBF745FE3032A0
:1053000007F8012C0BF1010B013F002EE5D098F8B6
:1053100000309B45E1D1BBF1FF0FDED0002D08BF6F
:105320000A2C80F0EF81CDF86880CDF84CB0C846EB
:105330000C9ED146DDF81CB0DDF834A0FFF7F7BBBA
:10534000DBF8580002F06EF8BBF80C30FFF781BBB9
:10535000514648462AAA1E9303F078F800287FF4A5
:1053600068AB9DF88B202C9C1E9B0DF1B408FFF7B9
:1053700049B8D146B346FFF75DBB079B5B0665D5D1
:105380000E9B002553F8044B0E93A4B2FFE6514642
:1053900048462AAA03F05AF800287FF44AAB2C9C0E
:1053A0000DF1B408FFF78EBA0F4A2B9B0F92013311
:1053B0000F9A2C44072BCDE92B34C8E900257FF741
:1053C00059A82CE40E9B0A9953F8042B5F461160F0
:1053D0000E93FFF770B800BF6766666674910008A9
:1053E000889100089C910008B8910008102B40F3A8
:1053F00093845146BC4ACA460997102617468946E7
:105400002B9B0F9205E008F10808103D102D40F38A
:105410002A8201331034072BCDE92B34C8E90076FA
:10542000F1DD494650462AAA03F010F8002840F062
:105430001383DDE92B340DF1B408E6E7384602F0BA
:1054400067FF2B4602460995FFF7EEB8079B00253C
:1054500013F4007F0E9B53F8044B0E9318BFE4B275
:1054600095E60E9A089B52F8044B13F4007F4FF018
:1054700000054FF001030E9218BFE4B2FFF7F4B835
:10548000079B002513F4007F0E9B53F8044B0E93EB
:1054900018BFE4B2FFF7E3B8079B13F4007F0E9B3D
:1054A00053F8044B18BF64B2E5170E9322462B46FF
:1054B000FFF771B88C4B2B9A0F93FFF7A5BA4846AC
:1054C00051462AAA02F0C2FF00283EF4FDAFFFF7C2
:1054D000B6BA139ABD18AD1BD31A9D42A8BF1D467C
:1054E0004FE40E9B0A9953F8042B5F4611800E93EC
:1054F000FEF7E1BF30238DF88C3058238DF88D30C6
:10550000079B43F00204099B632B00F3ED82002309
:105510003DAF0D93079BDDE9141243F481731293A1
:105520001346002B26F020050794C0F255820F93F6
:10553000002308950C911E93612E00F07B83412E71
:105540007FF476AD24AA0C980F9902F051FE002248
:105550004FF07F53FBF7C8FA04460D4600220023A4
:10556000CDE91045FBF7BAF808B1012324935F4B4E
:105570000C93099BCDF83CB0013B1396CDF87C9081
:10558000CDF880A02197BA46DDE910679946DDF88D
:1055900030B0CDF8588006E000220023FBF79EF8DB
:1055A00009F1FF39E8B90022514B30463946FBF783
:1055B0009BFA0D460446FBF7BFFC8046FAF7CEFF88
:1055C0000B46024629462046FAF77AFE1BF80830B9
:1055D000B9F1FF3F554606460F464C460AF8013BD7
:1055E000DAD1304639460022424BDDF83CB0139EFA
:1055F000CDF83CA0CDF84C80CDE91001DDE91F9A33
:10560000DDF85880219FFBF791F8002840F0508288
:10561000DDE910010022374BFBF760F818B1139B4E
:10562000DB0700F14582002C08DB30220F99631C58
:105630000B4401F8012B8B42FBD10F910F9B079D6F
:10564000DB1B1393129B07931AE5514648462AAA7F
:1056500002F0FCFE00287FF4ECA9DDE92B34249A4B
:105660000DF1B408FFF7CEBADBF8580001F0DAFE0E
:10567000FEF77ABE249BD81C109302DB099A934252
:1056800004DD023E26F02003089303E5109B1399E6
:105690008B42C0F2AB81EA0740F1E482179A1344CF
:1056A0000C936E0540F1E182109B002B00F3948275
:1056B00067260C9B23EAE373089300231293169347
:1056C0004CE52D2200238DF88B200993FEF742BF75
:1056D000289BA342BFF4D2AC30215A1C28921970E7
:1056E000289B9C42F9D8C9E4B89100088891000829
:1056F000000030400000E03F2D231A468DF88B302B
:10570000FEF713BF1D9B1C99FF1A1A46384602F07C
:105710002DFE98F801300BB108F101080A22002390
:1057200020462946FBF730FC4FF0000BDFE5139BCA
:105730004246DDF85880FB180993CDF830B00F973A
:105740002046DDF874B01A9F129BB8F1000F2DD0DF
:10575000002B6DD1013F08F1FF382B9B1C990133C1
:105760005844072BC2E9001B2C902B9364DC0832B1
:1057700009993B788D1B9D42A8BF1D46002D0ADD6F
:105780002B9B28440133072BC2E900652C902B93F7
:105790005DDC3B780832002DB4BF1D465D1B002D3B
:1057A00015DC1E44129BB8F1000FD1D1002B3FD164
:1057B000139B1A970F9F9046FB189E42324628BFB4
:1057C0001A4604461646DDF830B0FFF7AFBA102D82
:1057D00040F36A822B9910240B4604E0103D102DF3
:1057E00002F1080216DD0133B0491030072BCDE974
:1057F0002B30C2E90014F1DD514648462AAA02F0D6
:1058000025FE00287FF415A9DDE92B30103D102D71
:105810002DAAE8DC19464B1CA4492844072BCDE9E6
:105820002B30C2E900153EDC3B7808321E44B9E754
:10583000129B013B129390E7514648462AAA02F078
:1058400005FE00287FF4F5A82C982DAA90E7514674
:1058500048462AAA02F0FAFD00287FF4EAA83B781D
:105860002C982DAA97E74A46D1469246099F0133C4
:105870000F9A2C44072BCDE92B34C8E9002500F3FF
:10588000428108F10808FFF74ABA514648462AAA59
:1058900002F0DCFD00287FF4CCA8249A2C9C0DF1AA
:1058A000B408FFF748BB514648462AAA02F0CEFD8D
:1058B00000287FF4BEA83B782C982DAA1E4471E7DF
:1058C000514648462AAA02F0C1FD00287FF4B1A83B
:1058D0002C9C0DF1B408FFF71ABA514648462AAA83
:1058E00002F0B4FD00287FF4A4A8249B2C9C0DF1A9
:1058F000B408FFF731BA099C28A9CDE90004049146
:1059000025A824A9CDE90210484600F07DFB472DCB
:1059100007461AD1079D2B46DB0700F1A180129A9A
:10592000289B079247220892FFF7A8BB0320099CF7
:1059300028A9CDE90004049125A824A9CDE90210E5
:105940000F9B484600F060FB0746099B462D07EB7E
:1059500003047FF486AB3B78302B00F0B081249BAE
:10596000129A079D1C440792FFF77EBB099B9DF886
:105970008B2008930C9309900E941290169010901F
:10598000FEF7E5BD249A002A109240F3AF810999F1
:1059900005F001030B4340F047816626109B0C93F2
:1059A0006A0500F11A810C9B23EAE373089384E6ED
:1059B000DDE92B21FFF7F3B8514648462AAA02F049
:1059C00045FD00287FF435A8249B139A2C9C0DF1EB
:1059D000B408D31AFFF7D5B908952D23DDE91412C1
:1059E0001E9302F100430C910F93A5E5139B179AA8
:1059F0009A18109B0C92002B40F358816726CFE732
:105A000000230993FEF71ABC5542103280F2A1819F
:105A10005146264ACA4609971026174689460F92CC
:105A200004E008F10808103D102D79DD0133103431
:105A3000072BCDE92B34C8E90076F2DD4946504604
:105A40002AAA02F003FD38B9DDE92B340DF1B408C0
:105A5000E9E7D146FEF7EEBFCB46D146FEF7EABFF7
:105A6000099B079DFC18129B079347230893FFF798
:105A7000FBBA2B9BFFF71EB9DBF86430DB0707D4BA
:105A8000BBF80C309F0503D4DBF8580001F0CAFCCA
:105A90004FF0FF330A93FEF7DFBF044B2B9A0F93AF
:105AA000FEF779BF079B0893FFF78EB8B8910008FF
:105AB0000F9B0C99289513F8012CC97B8A4240F062
:105AC0002981302003F8010C289B5A1E289213F8D4
:105AD000012C9142F6D0392A0BBF0C9A0132927AEE
